{
  "contractName": "CRUD",
  "abi": [
    {
      "constant": true,
      "inputs": [],
      "name": "maxId",
      "outputs": [
        {
          "internalType": "uint256",
          "name": "",
          "type": "uint256"
        }
      ],
      "payable": false,
      "stateMutability": "view",
      "type": "function"
    },
    {
      "constant": true,
      "inputs": [
        {
          "internalType": "uint256",
          "name": "",
          "type": "uint256"
        }
      ],
      "name": "users",
      "outputs": [
        {
          "internalType": "uint256",
          "name": "id",
          "type": "uint256"
        },
        {
          "internalType": "string",
          "name": "name",
          "type": "string"
        }
      ],
      "payable": false,
      "stateMutability": "view",
      "type": "function"
    },
    {
      "constant": true,
      "inputs": [
        {
          "internalType": "uint256",
          "name": "_id",
          "type": "uint256"
        }
      ],
      "name": "getUser",
      "outputs": [
        {
          "internalType": "uint256",
          "name": "",
          "type": "uint256"
        },
        {
          "internalType": "string",
          "name": "",
          "type": "string"
        }
      ],
      "payable": false,
      "stateMutability": "view",
      "type": "function"
    },
    {
      "constant": false,
      "inputs": [],
      "name": "sayHi",
      "outputs": [
        {
          "internalType": "uint256",
          "name": "",
          "type": "uint256"
        }
      ],
      "payable": false,
      "stateMutability": "nonpayable",
      "type": "function"
    },
    {
      "constant": false,
      "inputs": [
        {
          "internalType": "string",
          "name": "_name",
          "type": "string"
        }
      ],
      "name": "addUser",
      "outputs": [
        {
          "internalType": "uint256",
          "name": "",
          "type": "uint256"
        }
      ],
      "payable": false,
      "stateMutability": "nonpayable",
      "type": "function"
    },
    {
      "constant": false,
      "inputs": [
        {
          "internalType": "uint256",
          "name": "_id",
          "type": "uint256"
        },
        {
          "internalType": "string",
          "name": "_newName",
          "type": "string"
        }
      ],
      "name": "updateUser",
      "outputs": [],
      "payable": false,
      "stateMutability": "nonpayable",
      "type": "function"
    },
    {
      "constant": false,
      "inputs": [
        {
          "internalType": "uint256",
          "name": "_id",
          "type": "uint256"
        }
      ],
      "name": "deleteUser",
      "outputs": [],
      "payable": false,
      "stateMutability": "nonpayable",
      "type": "function"
    }
  ],
  "bytecode": "0x6080604052600160005534801561001557600080fd5b506109e1806100256000396000f3fe608060405234801561001057600080fd5b506004361061007d5760003560e01c806338f148451161005b57806338f148451461021d578063b0467deb1461024b578063c5ea3c65146102f9578063d85340e7146103175761007d565b80630c49c36c1461008257806318b8275a146100a0578063365b98b21461016f575b600080fd5b61008a6103dc565b6040518082815260200191505060405180910390f35b610159600480360360208110156100b657600080fd5b81019080803590602001906401000000008111156100d357600080fd5b8201836020820111156100e557600080fd5b8035906020019184600183028401116401000000008311171561010757600080fd5b91908080601f016020809104026020016040519081016040528093929190818152602001838380828437600081840152601f19601f82011690508083019250505050505050919291929050505061049d565b6040518082815260200191505060405180910390f35b61019b6004803603602081101561018557600080fd5b810190808035906020019092919050505061052b565b6040518083815260200180602001828103825283818151815260200191508051906020019080838360005b838110156101e15780820151818401526020810190506101c6565b50505050905090810190601f16801561020e5780820380516001836020036101000a031916815260200191505b50935050505060405180910390f35b6102496004803603602081101561023357600080fd5b81019080803590602001909291905050506105f4565b005b6102776004803603602081101561026157600080fd5b810190808035906020019092919050505061063b565b6040518083815260200180602001828103825283818151815260200191508051906020019080838360005b838110156102bd5780820151818401526020810190506102a2565b50505050905090810190601f1680156102ea5780820380516001836020036101000a031916815260200191505b50935050505060405180910390f35b61030161072f565b6040518082815260200191505060405180910390f35b6103da6004803603604081101561032d57600080fd5b81019080803590602001909291908035906020019064010000000081111561035457600080fd5b82018360208201111561036657600080fd5b8035906020019184600183028401116401000000008311171561038857600080fd5b91908080601f016020809104026020016040519081016040528093929190818152602001838380828437600081840152601f19601f820116905080830192505050505050509192919290505050610735565b005b60006001604051806040016040528060005481526020016040518060400160405280600581526020017f52414a414e0000000000000000000000000000000000000000000000000000008152508152509080600181540180825580915050906001820390600052602060002090600202016000909192909190915060008201518160000155602082015181600101908051906020019061047d92919061083f565b505050506000808154809291906001019190505550600180549050905090565b6000600160405180604001604052806000548152602001848152509080600181540180825580915050906001820390600052602060002090600202016000909192909190915060008201518160000155602082015181600101908051906020019061050992919061083f565b5050505060008081548092919060010191905055506001805490509050919050565b6001818154811061053857fe5b9060005260206000209060020201600091509050806000015490806001018054600181600116156101000203166002900480601f0160208091040260200160405190810160405280929190818152602001828054600181600116156101000203166002900480156105ea5780601f106105bf576101008083540402835291602001916105ea565b820191906000526020600020905b8154815290600101906020018083116105cd57829003601f168201915b5050505050905082565b60006105ff8261077a565b90506001818154811061060e57fe5b906000526020600020906002020160008082016000905560018201600061063591906108bf565b50505050565b60006060600061064a8461077a565b90506001818154811061065957fe5b9060005260206000209060020201600001546001828154811061067857fe5b9060005260206000209060020201600101808054600181600116156101000203166002900480601f01602080910402602001604051908101604052809291908181526020018280546001816001161561010002031660029004801561071e5780601f106106f35761010080835404028352916020019161071e565b820191906000526020600020905b81548152906001019060200180831161070157829003601f168201915b505050505090509250925050915091565b60005481565b60006107408361077a565b9050816001828154811061075057fe5b90600052602060002090600202016001019080519060200190610774929190610907565b50505050565b600080600090505b6001805490508110156107cb57826001828154811061079d57fe5b90600052602060002090600202016000015414156107be578091505061083a565b8080600101915050610782565b506040517f08c379a00000000000000000000000000000000000000000000000000000000081526004018080602001828103825260138152602001807f5573657220646f6573206e6f742065786973740000000000000000000000000081525060200191505060405180910390fd5b919050565b828054600181600116156101000203166002900490600052602060002090601f016020900481019282601f1061088057805160ff19168380011785556108ae565b828001600101855582156108ae579182015b828111156108ad578251825591602001919060010190610892565b5b5090506108bb9190610987565b5090565b50805460018160011615610100020316600290046000825580601f106108e55750610904565b601f0160209004906000526020600020908101906109039190610987565b5b50565b828054600181600116156101000203166002900490600052602060002090601f016020900481019282601f1061094857805160ff1916838001178555610976565b82800160010185558215610976579182015b8281111561097557825182559160200191906001019061095a565b5b5090506109839190610987565b5090565b6109a991905b808211156109a557600081600090555060010161098d565b5090565b9056fea265627a7a72315820dd1541116f206a596e10fe239d9b8ea59a0857aa8303ccc2bf835e2886edaa5c64736f6c63430005100032",
  "source": "pragma solidity ^0.5.10;\n\ncontract CRUD {\n uint public maxId = 1; // because if we delete 0th element from array then getUserIndex will return index 0 as default for users[0].id will be set 0\n struct User {\n  uint id;\n  string name;\n }\n\n User[] public users;\n\n    // get index for id\n\n    function getUserIndex(uint _id) view internal returns(uint index){\n        for( uint i = 0; i < users.length ; i++){\n            if(users[i].id == _id){\n                return i;\n            }\n        }\n\n        revert('User does not exist');\n    }\n\n    // get user \n    function getUser(uint _id) view public returns(uint, string memory){\n        uint userIndex = getUserIndex(_id);\n        return (users[userIndex].id,users[userIndex].name);\n    }\n   // get all user \n    // function getAll() view public returns(User[] memory){\n    //     return users;\n    // }\n\n    function sayHi() public returns(uint){\n\n        users.push(User(maxId,\"RAJAN\"));\n        maxId++;\n        return users.length;\n        // return users.length;\n    }\n\n    // add\n    function addUser(string memory _name) public returns(uint){\n        users.push(User(maxId,_name));\n        maxId++;\n        return users.length;\n    }\n    \n    // update\n    function updateUser( uint _id, string memory _newName) public{\n        uint indexOfUser = getUserIndex(_id);\n        users[indexOfUser].name = _newName;\n    }\n\n    // delete\n    function deleteUser(uint _id) public {\n        uint userIndex = getUserIndex(_id);\n        delete users[userIndex];\n    }\n}\n",
  "sourcePath": "/home/rajan/Documents/Rajan/BlockChain/CRUD/contracts/CRUD.sol",
  "compiler": {
    "name": "solc",
    "version": "0.5.16+commit.9c3226ce.Emscripten.clang"
  },
  "schemaVersion": "3.4.7",
  "updatedAt": "2022-05-20T18:32:18.069Z",
  "networkType": "ethereum",
  "devdoc": {
    "methods": {}
  },
  "userdoc": {
    "methods": {}
  }
}