{
  "contractName": "CRUD",
  "abi": [
    {
      "inputs": [],
      "name": "maxId",
      "outputs": [
        {
          "internalType": "uint256",
          "name": "",
          "type": "uint256"
        }
      ],
      "stateMutability": "view",
      "type": "function",
      "constant": true
    },
    {
      "inputs": [
        {
          "internalType": "uint256",
          "name": "",
          "type": "uint256"
        }
      ],
      "name": "users",
      "outputs": [
        {
          "internalType": "uint256",
          "name": "id",
          "type": "uint256"
        },
        {
          "internalType": "string",
          "name": "name",
          "type": "string"
        }
      ],
      "stateMutability": "view",
      "type": "function",
      "constant": true
    },
    {
      "inputs": [
        {
          "internalType": "uint256",
          "name": "_id",
          "type": "uint256"
        }
      ],
      "name": "getUser",
      "outputs": [
        {
          "internalType": "uint256",
          "name": "",
          "type": "uint256"
        },
        {
          "internalType": "string",
          "name": "",
          "type": "string"
        }
      ],
      "stateMutability": "view",
      "type": "function",
      "constant": true
    },
    {
      "inputs": [],
      "name": "getAll",
      "outputs": [
        {
          "components": [
            {
              "internalType": "uint256",
              "name": "id",
              "type": "uint256"
            },
            {
              "internalType": "string",
              "name": "name",
              "type": "string"
            }
          ],
          "internalType": "struct CRUD.User[]",
          "name": "",
          "type": "tuple[]"
        }
      ],
      "stateMutability": "view",
      "type": "function",
      "constant": true
    },
    {
      "inputs": [
        {
          "internalType": "string",
          "name": "_name",
          "type": "string"
        }
      ],
      "name": "addUser",
      "outputs": [
        {
          "internalType": "uint256",
          "name": "",
          "type": "uint256"
        }
      ],
      "stateMutability": "nonpayable",
      "type": "function"
    },
    {
      "inputs": [
        {
          "internalType": "uint256",
          "name": "_id",
          "type": "uint256"
        },
        {
          "internalType": "string",
          "name": "_newName",
          "type": "string"
        }
      ],
      "name": "updateUser",
      "outputs": [],
      "stateMutability": "nonpayable",
      "type": "function"
    },
    {
      "inputs": [
        {
          "internalType": "uint256",
          "name": "_id",
          "type": "uint256"
        }
      ],
      "name": "deleteUser",
      "outputs": [],
      "stateMutability": "nonpayable",
      "type": "function"
    }
  ],
  "bytecode": "0x6080604052600160005534801561001557600080fd5b50610d49806100256000396000f3fe608060405234801561001057600080fd5b506004361061007d5760003560e01c806353ed51431161005b57806353ed5143146100ff578063b0467deb1461011d578063c5ea3c651461014e578063d85340e71461016c5761007d565b806318b8275a14610082578063365b98b2146100b257806338f14845146100e3575b600080fd5b61009c6004803603810190610097919061083d565b610188565b6040516100a9919061089f565b60405180910390f35b6100cc60048036038101906100c791906108e6565b610219565b6040516100da92919061099b565b60405180910390f35b6100fd60048036038101906100f891906108e6565b6102d5565b005b610107610323565b6040516101149190610b23565b60405180910390f35b610137600480360381019061013291906108e6565b61041e565b60405161014592919061099b565b60405180910390f35b610156610510565b604051610163919061089f565b60405180910390f35b61018660048036038101906101819190610b45565b610516565b005b60006001604051806040016040528060005481526020018481525090806001815401808255809150506001900390600052602060002090600202016000909190919091506000820151816000015560208201518160010190805190602001906101f2929190610600565b50505060008081548092919061020790610bd0565b91905055506001805490509050919050565b6001818154811061022957600080fd5b906000526020600020906002020160009150905080600001549080600101805461025290610c47565b80601f016020809104026020016040519081016040528092919081815260200182805461027e90610c47565b80156102cb5780601f106102a0576101008083540402835291602001916102cb565b820191906000526020600020905b8154815290600101906020018083116102ae57829003601f168201915b5050505050905082565b60006102e082610562565b9050600181815481106102f6576102f5610c78565b5b906000526020600020906002020160008082016000905560018201600061031d9190610686565b50505050565b60606001805480602002602001604051908101604052809291908181526020016000905b8282101561041557838290600052602060002090600202016040518060400160405290816000820154815260200160018201805461038490610c47565b80601f01602080910402602001604051908101604052809291908181526020018280546103b090610c47565b80156103fd5780601f106103d2576101008083540402835291602001916103fd565b820191906000526020600020905b8154815290600101906020018083116103e057829003601f168201915b50505050508152505081526020019060010190610347565b50505050905090565b60006060600061042d84610562565b90506001818154811061044357610442610c78565b5b9060005260206000209060020201600001546001828154811061046957610468610c78565b5b906000526020600020906002020160010180805461048690610c47565b80601f01602080910402602001604051908101604052809291908181526020018280546104b290610c47565b80156104ff5780601f106104d4576101008083540402835291602001916104ff565b820191906000526020600020905b8154815290600101906020018083116104e257829003601f168201915b505050505090509250925050915091565b60005481565b600061052183610562565b9050816001828154811061053857610537610c78565b5b9060005260206000209060020201600101908051906020019061055c929190610600565b50505050565b600080600090505b6001805490508110156105bf57826001828154811061058c5761058b610c78565b5b906000526020600020906002020160000154036105ac57809150506105fb565b80806105b790610bd0565b91505061056a565b506040517f08c379a00000000000000000000000000000000000000000000000000000000081526004016105f290610cf3565b60405180910390fd5b919050565b82805461060c90610c47565b90600052602060002090601f01602090048101928261062e5760008555610675565b82601f1061064757805160ff1916838001178555610675565b82800160010185558215610675579182015b82811115610674578251825591602001919060010190610659565b5b50905061068291906106c6565b5090565b50805461069290610c47565b6000825580601f106106a457506106c3565b601f0160209004906000526020600020908101906106c291906106c6565b5b50565b5b808211156106df5760008160009055506001016106c7565b5090565b6000604051905090565b600080fd5b600080fd5b600080fd5b600080fd5b6000601f19601f8301169050919050565b7f4e487b7100000000000000000000000000000000000000000000000000000000600052604160045260246000fd5b61074a82610701565b810181811067ffffffffffffffff8211171561076957610768610712565b5b80604052505050565b600061077c6106e3565b90506107888282610741565b919050565b600067ffffffffffffffff8211156107a8576107a7610712565b5b6107b182610701565b9050602081019050919050565b82818337600083830152505050565b60006107e06107db8461078d565b610772565b9050828152602081018484840111156107fc576107fb6106fc565b5b6108078482856107be565b509392505050565b600082601f830112610824576108236106f7565b5b81356108348482602086016107cd565b91505092915050565b600060208284031215610853576108526106ed565b5b600082013567ffffffffffffffff811115610871576108706106f2565b5b61087d8482850161080f565b91505092915050565b6000819050919050565b61089981610886565b82525050565b60006020820190506108b46000830184610890565b92915050565b6108c381610886565b81146108ce57600080fd5b50565b6000813590506108e0816108ba565b92915050565b6000602082840312156108fc576108fb6106ed565b5b600061090a848285016108d1565b91505092915050565b600081519050919050565b600082825260208201905092915050565b60005b8381101561094d578082015181840152602081019050610932565b8381111561095c576000848401525b50505050565b600061096d82610913565b610977818561091e565b935061098781856020860161092f565b61099081610701565b840191505092915050565b60006040820190506109b06000830185610890565b81810360208301526109c28184610962565b90509392505050565b600081519050919050565b600082825260208201905092915050565b6000819050602082019050919050565b610a0081610886565b82525050565b600082825260208201905092915050565b6000610a2282610913565b610a2c8185610a06565b9350610a3c81856020860161092f565b610a4581610701565b840191505092915050565b6000604083016000830151610a6860008601826109f7565b5060208301518482036020860152610a808282610a17565b9150508091505092915050565b6000610a998383610a50565b905092915050565b6000602082019050919050565b6000610ab9826109cb565b610ac381856109d6565b935083602082028501610ad5856109e7565b8060005b85811015610b115784840389528151610af28582610a8d565b9450610afd83610aa1565b925060208a01995050600181019050610ad9565b50829750879550505050505092915050565b60006020820190508181036000830152610b3d8184610aae565b905092915050565b60008060408385031215610b5c57610b5b6106ed565b5b6000610b6a858286016108d1565b925050602083013567ffffffffffffffff811115610b8b57610b8a6106f2565b5b610b978582860161080f565b9150509250929050565b7f4e487b7100000000000000000000000000000000000000000000000000000000600052601160045260246000fd5b6000610bdb82610886565b91507fffffffffffffffffffffffffffffffffffffffffffffffffffffffffffffffff8203610c0d57610c0c610ba1565b5b600182019050919050565b7f4e487b7100000000000000000000000000000000000000000000000000000000600052602260045260246000fd5b60006002820490506001821680610c5f57607f821691505b602082108103610c7257610c71610c18565b5b50919050565b7f4e487b7100000000000000000000000000000000000000000000000000000000600052603260045260246000fd5b7f5573657220646f6573206e6f7420657869737400000000000000000000000000600082015250565b6000610cdd60138361091e565b9150610ce882610ca7565b602082019050919050565b60006020820190508181036000830152610d0c81610cd0565b905091905056fea2646970667358221220dd320ffe07b7e13682cedb1c7d02809a3740e807007f35e2cffb4099b08d4da264736f6c634300080d0033",
  "immutableReferences": {},
  "source": "pragma solidity ^0.8.0;\n\ncontract CRUD {\n uint public maxId = 1; // because if we delete 0th element from array then getUserIndex will return index 0 as default for users[0].id will be set 0\n struct User {\n  uint id;\n  string name;\n }\n\n User[] public users;\n\n    // get index for id\n\n    function getUserIndex(uint _id) view internal returns(uint index){\n        for( uint i = 0; i < users.length ; i++){\n            if(users[i].id == _id){\n                return i;\n            }\n        }\n\n        revert('User does not exist');\n    }\n\n    // get user \n    function getUser(uint _id) view public returns(uint, string memory){\n        uint userIndex = getUserIndex(_id);\n        return (users[userIndex].id,users[userIndex].name);\n    }\n   // get all user \n    function getAll() view public returns(User[] memory){\n        return users;\n    }\n\n    // add\n    function addUser(string memory _name) public returns(uint){\n        users.push(User(maxId,_name));\n        maxId++;\n        return users.length;\n    }\n    \n    // update\n    function updateUser( uint _id, string memory _newName) public{\n        uint indexOfUser = getUserIndex(_id);\n        users[indexOfUser].name = _newName;\n    }\n\n    // delete\n    function deleteUser(uint _id) public {\n        uint userIndex = getUserIndex(_id);\n        delete users[userIndex];\n    }\n}\n",
  "sourcePath": "/home/rajan/Documents/Rajan/BlockChain/CRUD/contracts/CRUD.sol",
  "compiler": {
    "name": "solc",
    "version": "0.8.13+commit.abaa5c0e.Emscripten.clang"
  },
  "schemaVersion": "3.4.7",
  "updatedAt": "2022-05-19T18:57:27.157Z",
  "networkType": "ethereum",
  "devdoc": {
    "kind": "dev",
    "methods": {},
    "version": 1
  },
  "userdoc": {
    "kind": "user",
    "methods": {},
    "version": 1
  }
}