{
  "contractName": "CRUD",
  "abi": [
    {
      "inputs": [],
      "name": "maxId",
      "outputs": [
        {
          "internalType": "uint256",
          "name": "",
          "type": "uint256"
        }
      ],
      "stateMutability": "view",
      "type": "function",
      "constant": true
    },
    {
      "inputs": [
        {
          "internalType": "uint256",
          "name": "",
          "type": "uint256"
        }
      ],
      "name": "users",
      "outputs": [
        {
          "internalType": "uint256",
          "name": "id",
          "type": "uint256"
        },
        {
          "internalType": "string",
          "name": "name",
          "type": "string"
        }
      ],
      "stateMutability": "view",
      "type": "function",
      "constant": true
    },
    {
      "inputs": [
        {
          "internalType": "uint256",
          "name": "_id",
          "type": "uint256"
        }
      ],
      "name": "getUser",
      "outputs": [
        {
          "internalType": "uint256",
          "name": "",
          "type": "uint256"
        },
        {
          "internalType": "string",
          "name": "",
          "type": "string"
        }
      ],
      "stateMutability": "view",
      "type": "function",
      "constant": true
    },
    {
      "inputs": [],
      "name": "getAll",
      "outputs": [
        {
          "components": [
            {
              "internalType": "uint256",
              "name": "id",
              "type": "uint256"
            },
            {
              "internalType": "string",
              "name": "name",
              "type": "string"
            }
          ],
          "internalType": "struct CRUD.User[]",
          "name": "",
          "type": "tuple[]"
        }
      ],
      "stateMutability": "view",
      "type": "function",
      "constant": true
    },
    {
      "inputs": [
        {
          "internalType": "string",
          "name": "_name",
          "type": "string"
        }
      ],
      "name": "addUser",
      "outputs": [],
      "stateMutability": "nonpayable",
      "type": "function"
    },
    {
      "inputs": [
        {
          "internalType": "uint256",
          "name": "_id",
          "type": "uint256"
        },
        {
          "internalType": "string",
          "name": "_newName",
          "type": "string"
        }
      ],
      "name": "updateUser",
      "outputs": [],
      "stateMutability": "nonpayable",
      "type": "function"
    },
    {
      "inputs": [
        {
          "internalType": "uint256",
          "name": "_id",
          "type": "uint256"
        }
      ],
      "name": "deleteUser",
      "outputs": [],
      "stateMutability": "nonpayable",
      "type": "function"
    }
  ],
  "bytecode": "0x6080604052600160005534801561001557600080fd5b50610d29806100256000396000f3fe608060405234801561001057600080fd5b506004361061007d5760003560e01c806353ed51431161005b57806353ed5143146100eb578063b0467deb14610109578063c5ea3c651461013a578063d85340e7146101585761007d565b806318b8275a14610082578063365b98b21461009e57806338f14845146100cf575b600080fd5b61009c6004803603810190610097919061081d565b610174565b005b6100b860048036038101906100b3919061089c565b6101f9565b6040516100c6929190610960565b60405180910390f35b6100e960048036038101906100e4919061089c565b6102b5565b005b6100f3610303565b6040516101009190610ae8565b60405180910390f35b610123600480360381019061011e919061089c565b6103fe565b604051610131929190610960565b60405180910390f35b6101426104f0565b60405161014f9190610b0a565b60405180910390f35b610172600480360381019061016d9190610b25565b6104f6565b005b6001604051806040016040528060005481526020018381525090806001815401808255809150506001900390600052602060002090600202016000909190919091506000820151816000015560208201518160010190805190602001906101dc9291906105e0565b5050506000808154809291906101f190610bb0565b919050555050565b6001818154811061020957600080fd5b906000526020600020906002020160009150905080600001549080600101805461023290610c27565b80601f016020809104026020016040519081016040528092919081815260200182805461025e90610c27565b80156102ab5780601f10610280576101008083540402835291602001916102ab565b820191906000526020600020905b81548152906001019060200180831161028e57829003601f168201915b5050505050905082565b60006102c082610542565b9050600181815481106102d6576102d5610c58565b5b90600052602060002090600202016000808201600090556001820160006102fd9190610666565b50505050565b60606001805480602002602001604051908101604052809291908181526020016000905b828210156103f557838290600052602060002090600202016040518060400160405290816000820154815260200160018201805461036490610c27565b80601f016020809104026020016040519081016040528092919081815260200182805461039090610c27565b80156103dd5780601f106103b2576101008083540402835291602001916103dd565b820191906000526020600020905b8154815290600101906020018083116103c057829003601f168201915b50505050508152505081526020019060010190610327565b50505050905090565b60006060600061040d84610542565b90506001818154811061042357610422610c58565b5b9060005260206000209060020201600001546001828154811061044957610448610c58565b5b906000526020600020906002020160010180805461046690610c27565b80601f016020809104026020016040519081016040528092919081815260200182805461049290610c27565b80156104df5780601f106104b4576101008083540402835291602001916104df565b820191906000526020600020905b8154815290600101906020018083116104c257829003601f168201915b505050505090509250925050915091565b60005481565b600061050183610542565b9050816001828154811061051857610517610c58565b5b9060005260206000209060020201600101908051906020019061053c9291906105e0565b50505050565b600080600090505b60018054905081101561059f57826001828154811061056c5761056b610c58565b5b9060005260206000209060020201600001540361058c57809150506105db565b808061059790610bb0565b91505061054a565b506040517f08c379a00000000000000000000000000000000000000000000000000000000081526004016105d290610cd3565b60405180910390fd5b919050565b8280546105ec90610c27565b90600052602060002090601f01602090048101928261060e5760008555610655565b82601f1061062757805160ff1916838001178555610655565b82800160010185558215610655579182015b82811115610654578251825591602001919060010190610639565b5b50905061066291906106a6565b5090565b50805461067290610c27565b6000825580601f1061068457506106a3565b601f0160209004906000526020600020908101906106a291906106a6565b5b50565b5b808211156106bf5760008160009055506001016106a7565b5090565b6000604051905090565b600080fd5b600080fd5b600080fd5b600080fd5b6000601f19601f8301169050919050565b7f4e487b7100000000000000000000000000000000000000000000000000000000600052604160045260246000fd5b61072a826106e1565b810181811067ffffffffffffffff82111715610749576107486106f2565b5b80604052505050565b600061075c6106c3565b90506107688282610721565b919050565b600067ffffffffffffffff821115610788576107876106f2565b5b610791826106e1565b9050602081019050919050565b82818337600083830152505050565b60006107c06107bb8461076d565b610752565b9050828152602081018484840111156107dc576107db6106dc565b5b6107e784828561079e565b509392505050565b600082601f830112610804576108036106d7565b5b81356108148482602086016107ad565b91505092915050565b600060208284031215610833576108326106cd565b5b600082013567ffffffffffffffff811115610851576108506106d2565b5b61085d848285016107ef565b91505092915050565b6000819050919050565b61087981610866565b811461088457600080fd5b50565b60008135905061089681610870565b92915050565b6000602082840312156108b2576108b16106cd565b5b60006108c084828501610887565b91505092915050565b6108d281610866565b82525050565b600081519050919050565b600082825260208201905092915050565b60005b838110156109125780820151818401526020810190506108f7565b83811115610921576000848401525b50505050565b6000610932826108d8565b61093c81856108e3565b935061094c8185602086016108f4565b610955816106e1565b840191505092915050565b600060408201905061097560008301856108c9565b81810360208301526109878184610927565b90509392505050565b600081519050919050565b600082825260208201905092915050565b6000819050602082019050919050565b6109c581610866565b82525050565b600082825260208201905092915050565b60006109e7826108d8565b6109f181856109cb565b9350610a018185602086016108f4565b610a0a816106e1565b840191505092915050565b6000604083016000830151610a2d60008601826109bc565b5060208301518482036020860152610a4582826109dc565b9150508091505092915050565b6000610a5e8383610a15565b905092915050565b6000602082019050919050565b6000610a7e82610990565b610a88818561099b565b935083602082028501610a9a856109ac565b8060005b85811015610ad65784840389528151610ab78582610a52565b9450610ac283610a66565b925060208a01995050600181019050610a9e565b50829750879550505050505092915050565b60006020820190508181036000830152610b028184610a73565b905092915050565b6000602082019050610b1f60008301846108c9565b92915050565b60008060408385031215610b3c57610b3b6106cd565b5b6000610b4a85828601610887565b925050602083013567ffffffffffffffff811115610b6b57610b6a6106d2565b5b610b77858286016107ef565b9150509250929050565b7f4e487b7100000000000000000000000000000000000000000000000000000000600052601160045260246000fd5b6000610bbb82610866565b91507fffffffffffffffffffffffffffffffffffffffffffffffffffffffffffffffff8203610bed57610bec610b81565b5b600182019050919050565b7f4e487b7100000000000000000000000000000000000000000000000000000000600052602260045260246000fd5b60006002820490506001821680610c3f57607f821691505b602082108103610c5257610c51610bf8565b5b50919050565b7f4e487b7100000000000000000000000000000000000000000000000000000000600052603260045260246000fd5b7f5573657220646f6573206e6f7420657869737400000000000000000000000000600082015250565b6000610cbd6013836108e3565b9150610cc882610c87565b602082019050919050565b60006020820190508181036000830152610cec81610cb0565b905091905056fea2646970667358221220aa40de6408db3fbcf87609f65841bfc3cefb26e811c2f0deb9e4a758a9bd0c5264736f6c634300080d0033",
  "immutableReferences": {},
  "source": "pragma solidity ^0.8.0;\n\ncontract CRUD {\n uint public maxId = 1; // because if we delete 0th element from array then getUserIndex will return index 0 as default for users[0].id will be set 0\n struct User {\n  uint id;\n  string name;\n }\n\n User[] public users;\n\n    // get index for id\n\n    function getUserIndex(uint _id) view internal returns(uint index){\n        for( uint i = 0; i < users.length ; i++){\n            if(users[i].id == _id){\n                return i;\n            }\n        }\n\n        revert('User does not exist');\n    }\n\n    // get user \n    function getUser(uint _id) view public returns(uint, string memory){\n        uint userIndex = getUserIndex(_id);\n        return (users[userIndex].id,users[userIndex].name);\n    }\n   // get all user \n    function getAll() view public returns(User[] memory){\n        return users;\n    }\n\n    // add\n    function addUser(string memory _name) public {\n        users.push(User(maxId,_name));\n        maxId++;\n    }\n    \n    // update\n    function updateUser( uint _id, string memory _newName) public{\n        uint indexOfUser = getUserIndex(_id);\n        users[indexOfUser].name = _newName;\n    }\n\n    // delete\n    function deleteUser(uint _id) public {\n        uint userIndex = getUserIndex(_id);\n        delete users[userIndex];\n    }\n}\n",
  "sourcePath": "/home/rajan/Documents/Rajan/BlockChain/CRUD/contracts/CRUD.sol",
  "compiler": {
    "name": "solc",
    "version": "0.8.13+commit.abaa5c0e.Emscripten.clang"
  },
  "schemaVersion": "3.4.7",
  "updatedAt": "2022-05-19T12:18:06.485Z",
  "networkType": "ethereum",
  "devdoc": {
    "kind": "dev",
    "methods": {},
    "version": 1
  },
  "userdoc": {
    "kind": "user",
    "methods": {},
    "version": 1
  }
}